{
  "contractName": "ERC721Harberger",
  "abi": [
    {
      "inputs": [
        {
          "internalType": "string",
          "name": "name",
          "type": "string"
        },
        {
          "internalType": "string",
          "name": "symbol",
          "type": "string"
        },
        {
          "internalType": "uint96",
          "name": "_harbergerRate",
          "type": "uint96"
        }
      ],
      "stateMutability": "nonpayable",
      "type": "constructor"
    },
    {
      "anonymous": false,
      "inputs": [
        {
          "indexed": true,
          "internalType": "address",
          "name": "owner",
          "type": "address"
        },
        {
          "indexed": true,
          "internalType": "address",
          "name": "approved",
          "type": "address"
        },
        {
          "indexed": true,
          "internalType": "uint256",
          "name": "tokenId",
          "type": "uint256"
        }
      ],
      "name": "Approval",
      "type": "event"
    },
    {
      "anonymous": false,
      "inputs": [
        {
          "indexed": true,
          "internalType": "address",
          "name": "owner",
          "type": "address"
        },
        {
          "indexed": true,
          "internalType": "address",
          "name": "operator",
          "type": "address"
        },
        {
          "indexed": false,
          "internalType": "bool",
          "name": "approved",
          "type": "bool"
        }
      ],
      "name": "ApprovalForAll",
      "type": "event"
    },
    {
      "anonymous": false,
      "inputs": [
        {
          "indexed": false,
          "internalType": "uint256",
          "name": "tokenId",
          "type": "uint256"
        },
        {
          "indexed": false,
          "internalType": "address",
          "name": "_claimer",
          "type": "address"
        }
      ],
      "name": "Claimed",
      "type": "event"
    },
    {
      "anonymous": false,
      "inputs": [
        {
          "indexed": false,
          "internalType": "uint256",
          "name": "tokenId",
          "type": "uint256"
        },
        {
          "indexed": false,
          "internalType": "uint96",
          "name": "price",
          "type": "uint96"
        }
      ],
      "name": "NewHarbergerPrice",
      "type": "event"
    },
    {
      "anonymous": false,
      "inputs": [
        {
          "indexed": true,
          "internalType": "address",
          "name": "from",
          "type": "address"
        },
        {
          "indexed": true,
          "internalType": "address",
          "name": "to",
          "type": "address"
        },
        {
          "indexed": true,
          "internalType": "uint256",
          "name": "tokenId",
          "type": "uint256"
        }
      ],
      "name": "Transfer",
      "type": "event"
    },
    {
      "inputs": [
        {
          "internalType": "address",
          "name": "to",
          "type": "address"
        },
        {
          "internalType": "uint256",
          "name": "tokenId",
          "type": "uint256"
        }
      ],
      "name": "approve",
      "outputs": [],
      "stateMutability": "nonpayable",
      "type": "function"
    },
    {
      "inputs": [
        {
          "internalType": "address",
          "name": "owner",
          "type": "address"
        }
      ],
      "name": "balanceOf",
      "outputs": [
        {
          "internalType": "uint256",
          "name": "",
          "type": "uint256"
        }
      ],
      "stateMutability": "view",
      "type": "function"
    },
    {
      "inputs": [
        {
          "internalType": "uint256",
          "name": "tokenId",
          "type": "uint256"
        }
      ],
      "name": "getApproved",
      "outputs": [
        {
          "internalType": "address",
          "name": "",
          "type": "address"
        }
      ],
      "stateMutability": "view",
      "type": "function"
    },
    {
      "inputs": [],
      "name": "harbergerRate",
      "outputs": [
        {
          "internalType": "uint96",
          "name": "",
          "type": "uint96"
        }
      ],
      "stateMutability": "view",
      "type": "function"
    },
    {
      "inputs": [
        {
          "internalType": "address",
          "name": "owner",
          "type": "address"
        },
        {
          "internalType": "address",
          "name": "operator",
          "type": "address"
        }
      ],
      "name": "isApprovedForAll",
      "outputs": [
        {
          "internalType": "bool",
          "name": "",
          "type": "bool"
        }
      ],
      "stateMutability": "view",
      "type": "function"
    },
    {
      "inputs": [],
      "name": "mintingPrice",
      "outputs": [
        {
          "internalType": "uint96",
          "name": "",
          "type": "uint96"
        }
      ],
      "stateMutability": "view",
      "type": "function"
    },
    {
      "inputs": [],
      "name": "month",
      "outputs": [
        {
          "internalType": "uint96",
          "name": "",
          "type": "uint96"
        }
      ],
      "stateMutability": "view",
      "type": "function"
    },
    {
      "inputs": [],
      "name": "name",
      "outputs": [
        {
          "internalType": "string",
          "name": "",
          "type": "string"
        }
      ],
      "stateMutability": "view",
      "type": "function"
    },
    {
      "inputs": [
        {
          "internalType": "uint256",
          "name": "tokenId",
          "type": "uint256"
        }
      ],
      "name": "ownerOf",
      "outputs": [
        {
          "internalType": "address",
          "name": "",
          "type": "address"
        }
      ],
      "stateMutability": "view",
      "type": "function"
    },
    {
      "inputs": [],
      "name": "royaltyReceiver",
      "outputs": [
        {
          "internalType": "address payable",
          "name": "",
          "type": "address"
        }
      ],
      "stateMutability": "view",
      "type": "function"
    },
    {
      "inputs": [
        {
          "internalType": "address",
          "name": "operator",
          "type": "address"
        },
        {
          "internalType": "bool",
          "name": "approved",
          "type": "bool"
        }
      ],
      "name": "setApprovalForAll",
      "outputs": [],
      "stateMutability": "nonpayable",
      "type": "function"
    },
    {
      "inputs": [
        {
          "internalType": "bytes4",
          "name": "interfaceId",
          "type": "bytes4"
        }
      ],
      "name": "supportsInterface",
      "outputs": [
        {
          "internalType": "bool",
          "name": "",
          "type": "bool"
        }
      ],
      "stateMutability": "view",
      "type": "function"
    },
    {
      "inputs": [],
      "name": "symbol",
      "outputs": [
        {
          "internalType": "string",
          "name": "",
          "type": "string"
        }
      ],
      "stateMutability": "view",
      "type": "function"
    },
    {
      "inputs": [
        {
          "internalType": "uint256",
          "name": "tokenId",
          "type": "uint256"
        }
      ],
      "name": "tokenURI",
      "outputs": [
        {
          "internalType": "string",
          "name": "",
          "type": "string"
        }
      ],
      "stateMutability": "view",
      "type": "function"
    },
    {
      "inputs": [
        {
          "internalType": "uint256",
          "name": "tokenId",
          "type": "uint256"
        }
      ],
      "name": "claim",
      "outputs": [],
      "stateMutability": "payable",
      "type": "function"
    },
    {
      "inputs": [
        {
          "internalType": "uint256",
          "name": "tokenId",
          "type": "uint256"
        },
        {
          "internalType": "uint96",
          "name": "price",
          "type": "uint96"
        }
      ],
      "name": "claimAndSetPrice",
      "outputs": [],
      "stateMutability": "payable",
      "type": "function"
    },
    {
      "inputs": [
        {
          "internalType": "address",
          "name": "from",
          "type": "address"
        },
        {
          "internalType": "address",
          "name": "to",
          "type": "address"
        },
        {
          "internalType": "uint256",
          "name": "tokenId",
          "type": "uint256"
        }
      ],
      "name": "transferFrom",
      "outputs": [],
      "stateMutability": "payable",
      "type": "function"
    },
    {
      "inputs": [
        {
          "internalType": "address",
          "name": "from",
          "type": "address"
        },
        {
          "internalType": "address",
          "name": "to",
          "type": "address"
        },
        {
          "internalType": "uint256",
          "name": "tokenId",
          "type": "uint256"
        }
      ],
      "name": "safeTransferFrom",
      "outputs": [],
      "stateMutability": "payable",
      "type": "function"
    },
    {
      "inputs": [
        {
          "internalType": "address",
          "name": "from",
          "type": "address"
        },
        {
          "internalType": "address",
          "name": "to",
          "type": "address"
        },
        {
          "internalType": "uint256",
          "name": "tokenId",
          "type": "uint256"
        },
        {
          "internalType": "bytes",
          "name": "data",
          "type": "bytes"
        }
      ],
      "name": "safeTransferFrom",
      "outputs": [],
      "stateMutability": "payable",
      "type": "function"
    },
    {
      "inputs": [
        {
          "internalType": "uint256",
          "name": "tokenId",
          "type": "uint256"
        },
        {
          "internalType": "uint96",
          "name": "price",
          "type": "uint96"
        }
      ],
      "name": "setTokenPrice",
      "outputs": [],
      "stateMutability": "nonpayable",
      "type": "function"
    },
    {
      "inputs": [
        {
          "internalType": "uint256",
          "name": "tokenId",
          "type": "uint256"
        }
      ],
      "name": "getHarbergerInfo",
      "outputs": [
        {
          "internalType": "uint64",
          "name": "",
          "type": "uint64"
        },
        {
          "internalType": "uint96",
          "name": "",
          "type": "uint96"
        },
        {
          "internalType": "uint96",
          "name": "",
          "type": "uint96"
        }
      ],
      "stateMutability": "view",
      "type": "function"
    },
    {
      "inputs": [
        {
          "internalType": "uint256",
          "name": "tokenId",
          "type": "uint256"
        }
      ],
      "name": "getHarbergerTax",
      "outputs": [
        {
          "internalType": "uint96",
          "name": "",
          "type": "uint96"
        }
      ],
      "stateMutability": "view",
      "type": "function"
    },
    {
      "inputs": [
        {
          "internalType": "uint256",
          "name": "tokenId",
          "type": "uint256"
        }
      ],
      "name": "getHarbergerPrice",
      "outputs": [
        {
          "internalType": "uint96",
          "name": "",
          "type": "uint96"
        }
      ],
      "stateMutability": "view",
      "type": "function"
    },
    {
      "inputs": [
        {
          "internalType": "uint256",
          "name": "tokenId",
          "type": "uint256"
        }
      ],
      "name": "remainingTax",
      "outputs": [
        {
          "internalType": "uint96",
          "name": "openTax",
          "type": "uint96"
        }
      ],
      "stateMutability": "view",
      "type": "function"
    },
    {
      "inputs": [
        {
          "internalType": "uint256",
          "name": "tokenId",
          "type": "uint256"
        }
      ],
      "name": "mint",
      "outputs": [],
      "stateMutability": "payable",
      "type": "function"
    }
  ],
  "bytecode": "0x60c06040523480156200001157600080fd5b506040516200408b3803806200408b833981810160405281019062000037919062000364565b8282816000908051906020019062000051929190620000ce565b5080600190805190602001906200006a929190620000ce565b505050806bffffffffffffffffffffffff166080816bffffffffffffffffffffffff16815250503373ffffffffffffffffffffffffffffffffffffffff1660a08173ffffffffffffffffffffffffffffffffffffffff168152505050505062000463565b828054620000dc906200042d565b90600052602060002090601f0160209004810192826200010057600085556200014c565b82601f106200011b57805160ff19168380011785556200014c565b828001600101855582156200014c579182015b828111156200014b5782518255916020019190600101906200012e565b5b5090506200015b91906200015f565b5090565b5b808211156200017a57600081600090555060010162000160565b5090565b6000604051905090565b600080fd5b600080fd5b600080fd5b600080fd5b6000601f19601f8301169050919050565b7f4e487b7100000000000000000000000000000000000000000000000000000000600052604160045260246000fd5b620001e7826200019c565b810181811067ffffffffffffffff82111715620002095762000208620001ad565b5b80604052505050565b60006200021e6200017e565b90506200022c8282620001dc565b919050565b600067ffffffffffffffff8211156200024f576200024e620001ad565b5b6200025a826200019c565b9050602081019050919050565b60005b83811015620002875780820151818401526020810190506200026a565b8381111562000297576000848401525b50505050565b6000620002b4620002ae8462000231565b62000212565b905082815260208101848484011115620002d357620002d262000197565b5b620002e084828562000267565b509392505050565b600082601f8301126200030057620002ff62000192565b5b8151620003128482602086016200029d565b91505092915050565b60006bffffffffffffffffffffffff82169050919050565b6200033e816200031b565b81146200034a57600080fd5b50565b6000815190506200035e8162000333565b92915050565b60008060006060848603121562000380576200037f62000188565b5b600084015167ffffffffffffffff811115620003a157620003a06200018d565b5b620003af86828701620002e8565b935050602084015167ffffffffffffffff811115620003d357620003d26200018d565b5b620003e186828701620002e8565b9250506040620003f4868287016200034d565b9150509250925092565b7f4e487b7100000000000000000000000000000000000000000000000000000000600052602260045260246000fd5b600060028204905060018216806200044657607f821691505b602082108114156200045d576200045c620003fe565b5b50919050565b60805160a051613bd8620004b36000396000818161096d01528181610ce301528181610d6501528181610ffd015281816113ff015261161301526000818161196d01526119e40152613bd86000f3fe6080604052600436106101665760003560e01c806370a08231116100d1578063b88d4fde1161008a578063e319e20511610064578063e319e20514610526578063e3b0e6b014610551578063e985e9c51461058e578063ec084b98146105cb57610166565b8063b88d4fde1461048e578063c87b56dd146104aa578063dcbf5a00146104e757610166565b806370a082311461037957806395d89b41146103b65780639fbc8713146103e1578063a0712d681461040c578063a22cb46514610428578063a2b8f7311461045157610166565b80632dc72ae3116101235780632dc72ae31461029257806335db70b5146102ae578063379607f5146102d957806342842e0e146102f55780636352211e14610311578063702921f51461034e57610166565b806301ffc9a71461016b57806306fdde03146101a8578063081812fc146101d357806308356f5014610210578063095ea7b31461024d57806323b872dd14610276575b600080fd5b34801561017757600080fd5b50610192600480360381019061018d91906129ea565b6105f4565b60405161019f9190612a32565b60405180910390f35b3480156101b457600080fd5b506101bd6106d6565b6040516101ca9190612ae6565b60405180910390f35b3480156101df57600080fd5b506101fa60048036038101906101f59190612b3e565b610768565b6040516102079190612bac565b60405180910390f35b34801561021c57600080fd5b5061023760048036038101906102329190612b3e565b6107ae565b6040516102449190612bee565b60405180910390f35b34801561025957600080fd5b50610274600480360381019061026f9190612c35565b6107f9565b005b610290600480360381019061028b9190612c75565b610911565b005b6102ac60048036038101906102a79190612cf4565b610b6a565b005b3480156102ba57600080fd5b506102c3610bf5565b6040516102d09190612bee565b60405180910390f35b6102f360048036038101906102ee9190612b3e565b610bfa565b005b61030f600480360381019061030a9190612c75565b610fa1565b005b34801561031d57600080fd5b5061033860048036038101906103339190612b3e565b6111fa565b6040516103459190612bac565b60405180910390f35b34801561035a57600080fd5b506103636112ac565b6040516103709190612bee565b60405180910390f35b34801561038557600080fd5b506103a0600480360381019061039b9190612d34565b6112b3565b6040516103ad9190612d70565b60405180910390f35b3480156103c257600080fd5b506103cb61136b565b6040516103d89190612ae6565b60405180910390f35b3480156103ed57600080fd5b506103f66113fd565b6040516104039190612dac565b60405180910390f35b61042660048036038101906104219190612b3e565b611421565b005b34801561043457600080fd5b5061044f600480360381019061044a9190612df3565b611556565b005b34801561045d57600080fd5b5061047860048036038101906104739190612b3e565b61156c565b6040516104859190612bee565b60405180910390f35b6104a860048036038101906104a39190612f68565b6115b7565b005b3480156104b657600080fd5b506104d160048036038101906104cc9190612b3e565b611812565b6040516104de9190612ae6565b60405180910390f35b3480156104f357600080fd5b5061050e60048036038101906105099190612b3e565b61187a565b60405161051d9392919061300e565b60405180910390f35b34801561053257600080fd5b5061053b61196b565b6040516105489190612bee565b60405180910390f35b34801561055d57600080fd5b5061057860048036038101906105739190612b3e565b61198f565b6040516105859190612bee565b60405180910390f35b34801561059a57600080fd5b506105b560048036038101906105b09190613045565b611a57565b6040516105c29190612a32565b60405180910390f35b3480156105d757600080fd5b506105f260048036038101906105ed9190612cf4565b611aeb565b005b60007f80ac58cd000000000000000000000000000000000000000000000000000000007bffffffffffffffffffffffffffffffffffffffffffffffffffffffff1916827bffffffffffffffffffffffffffffffffffffffffffffffffffffffff191614806106bf57507f5b5e139f000000000000000000000000000000000000000000000000000000007bffffffffffffffffffffffffffffffffffffffffffffffffffffffff1916827bffffffffffffffffffffffffffffffffffffffffffffffffffffffff1916145b806106cf57506106ce82611c75565b5b9050919050565b6060600080546106e5906130b4565b80601f0160208091040260200160405190810160405280929190818152602001828054610711906130b4565b801561075e5780601f106107335761010080835404028352916020019161075e565b820191906000526020600020905b81548152906001019060200180831161074157829003601f168201915b5050505050905090565b600061077382611cdf565b6004600083815260200190815260200160002060009054906101000a900473ffffffffffffffffffffffffffffffffffffffff169050919050565b60006107b98261156c565b6006600084815260200190815260200160002060000160089054906101000a90046bffffffffffffffffffffffff166107f29190613115565b9050919050565b6000610804826111fa565b90508073ffffffffffffffffffffffffffffffffffffffff168373ffffffffffffffffffffffffffffffffffffffff161415610875576040517f08c379a000000000000000000000000000000000000000000000000000000000815260040161086c906131c9565b60405180910390fd5b8073ffffffffffffffffffffffffffffffffffffffff16610894611d2a565b73ffffffffffffffffffffffffffffffffffffffff1614806108c357506108c2816108bd611d2a565b611a57565b5b610902576040517f08c379a00000000000000000000000000000000000000000000000000000000081526004016108f99061325b565b60405180910390fd5b61090c8383611d32565b505050565b8061091b8161156c565b6bffffffffffffffffffffffff1634101561096b576040517f08c379a0000000000000000000000000000000000000000000000000000000008152600401610962906132ed565b60405180910390fd5b7f000000000000000000000000000000000000000000000000000000000000000073ffffffffffffffffffffffffffffffffffffffff166108fc6109ae8361156c565b6bffffffffffffffffffffffff169081150290604051600060405180830381858888f193505050501580156109e7573d6000803e3d6000fd5b503373ffffffffffffffffffffffffffffffffffffffff166108fc610a0b8361156c565b6bffffffffffffffffffffffff1634610a24919061330d565b9081150290604051600060405180830381858888f19350505050158015610a4f573d6000803e3d6000fd5b5081610a5c858585611deb565b6000600660008381526020019081526020016000209050610a7c826107ae565b8160000160086101000a8154816bffffffffffffffffffffffff02191690836bffffffffffffffffffffffff160217905550428160000160006101000a81548167ffffffffffffffff021916908367ffffffffffffffff16021790555060008160000160146101000a8154816bffffffffffffffffffffffff02191690836bffffffffffffffffffffffff1602179055507fb3751b0473baa8f7bbda9b4585ae58cc84102278141b981b54f8593a97751d95828260000160089054906101000a90046bffffffffffffffffffffffff16604051610b5a929190613341565b60405180910390a1505050505050565b610b7382610bfa565b806006600084815260200190815260200160002060000160086101000a8154816bffffffffffffffffffffffff02191690836bffffffffffffffffffffffff1602179055507fb3751b0473baa8f7bbda9b4585ae58cc84102278141b981b54f8593a97751d958282604051610be9929190613341565b60405180910390a15050565b600081565b80610c04826111fa565b73ffffffffffffffffffffffffffffffffffffffff163373ffffffffffffffffffffffffffffffffffffffff161415610c3c57600080fd5b610c45826107ae565b6bffffffffffffffffffffffff16341015610c5f57600080fd5b6000610c6a836111fa565b73ffffffffffffffffffffffffffffffffffffffff166108fc6006600086815260200190815260200160002060000160089054906101000a90046bffffffffffffffffffffffff166bffffffffffffffffffffffff169081150290604051600060405180830381858888f19350505050905080610d63577f000000000000000000000000000000000000000000000000000000000000000073ffffffffffffffffffffffffffffffffffffffff166108fc610d24856107ae565b6bffffffffffffffffffffffff169081150290604051600060405180830381858888f19350505050158015610d5d573d6000803e3d6000fd5b50610de1565b7f000000000000000000000000000000000000000000000000000000000000000073ffffffffffffffffffffffffffffffffffffffff166108fc610da68561156c565b6bffffffffffffffffffffffff169081150290604051600060405180830381858888f19350505050158015610ddf573d6000803e3d6000fd5b505b3373ffffffffffffffffffffffffffffffffffffffff166108fc610e04856107ae565b6bffffffffffffffffffffffff1634610e1d919061330d565b9081150290604051600060405180830381858888f19350505050158015610e48573d6000803e3d6000fd5b50610e5c610e55846111fa565b3385611e4b565b7f6aa3eac93d079e5e100b1029be716caa33586c96aa4baac390669fb5c2a212128333604051610e8d92919061336a565b60405180910390a1506000600660008381526020019081526020016000209050610eb6826107ae565b8160000160086101000a8154816bffffffffffffffffffffffff02191690836bffffffffffffffffffffffff160217905550428160000160006101000a81548167ffffffffffffffff021916908367ffffffffffffffff16021790555060008160000160146101000a8154816bffffffffffffffffffffffff02191690836bffffffffffffffffffffffff1602179055507fb3751b0473baa8f7bbda9b4585ae58cc84102278141b981b54f8593a97751d95828260000160089054906101000a90046bffffffffffffffffffffffff16604051610f94929190613341565b60405180910390a1505050565b80610fab8161156c565b6bffffffffffffffffffffffff16341015610ffb576040517f08c379a0000000000000000000000000000000000000000000000000000000008152600401610ff2906132ed565b60405180910390fd5b7f000000000000000000000000000000000000000000000000000000000000000073ffffffffffffffffffffffffffffffffffffffff166108fc61103e8361156c565b6bffffffffffffffffffffffff169081150290604051600060405180830381858888f19350505050158015611077573d6000803e3d6000fd5b503373ffffffffffffffffffffffffffffffffffffffff166108fc61109b8361156c565b6bffffffffffffffffffffffff16346110b4919061330d565b9081150290604051600060405180830381858888f193505050501580156110df573d6000803e3d6000fd5b50816110ec8585856120b2565b600060066000838152602001908152602001600020905061110c826107ae565b8160000160086101000a8154816bffffffffffffffffffffffff02191690836bffffffffffffffffffffffff160217905550428160000160006101000a81548167ffffffffffffffff021916908367ffffffffffffffff16021790555060008160000160146101000a8154816bffffffffffffffffffffffff02191690836bffffffffffffffffffffffff1602179055507fb3751b0473baa8f7bbda9b4585ae58cc84102278141b981b54f8593a97751d95828260000160089054906101000a90046bffffffffffffffffffffffff166040516111ea929190613341565b60405180910390a1505050505050565b6000806002600084815260200190815260200160002060009054906101000a900473ffffffffffffffffffffffffffffffffffffffff169050600073ffffffffffffffffffffffffffffffffffffffff168173ffffffffffffffffffffffffffffffffffffffff1614156112a3576040517f08c379a000000000000000000000000000000000000000000000000000000000815260040161129a906133df565b60405180910390fd5b80915050919050565b62278d0081565b60008073ffffffffffffffffffffffffffffffffffffffff168273ffffffffffffffffffffffffffffffffffffffff161415611324576040517f08c379a000000000000000000000000000000000000000000000000000000000815260040161131b90613471565b60405180910390fd5b600360008373ffffffffffffffffffffffffffffffffffffffff1673ffffffffffffffffffffffffffffffffffffffff168152602001908152602001600020549050919050565b60606001805461137a906130b4565b80601f01602080910402602001604051908101604052809291908181526020018280546113a6906130b4565b80156113f35780601f106113c8576101008083540402835291602001916113f3565b820191906000526020600020905b8154815290600101906020018083116113d657829003601f168201915b5050505050905090565b7f000000000000000000000000000000000000000000000000000000000000000081565b60006bffffffffffffffffffffffff1634101561143d57600080fd5b3373ffffffffffffffffffffffffffffffffffffffff166108fc60006bffffffffffffffffffffffff1634611472919061330d565b9081150290604051600060405180830381858888f1935050505015801561149d573d6000803e3d6000fd5b506114a833826120d2565b600060066000838152602001908152602001600020905060008160000160086101000a8154816bffffffffffffffffffffffff02191690836bffffffffffffffffffffffff160217905550428160000160006101000a81548167ffffffffffffffff021916908367ffffffffffffffff16021790555060008160000160146101000a8154816bffffffffffffffffffffffff02191690836bffffffffffffffffffffffff1602179055505050565b611568611561611d2a565b83836120f0565b5050565b60006115778261198f565b6006600084815260200190815260200160002060000160149054906101000a90046bffffffffffffffffffffffff166115b09190613115565b9050919050565b816115c18161156c565b6bffffffffffffffffffffffff16341015611611576040517f08c379a0000000000000000000000000000000000000000000000000000000008152600401611608906132ed565b60405180910390fd5b7f000000000000000000000000000000000000000000000000000000000000000073ffffffffffffffffffffffffffffffffffffffff166108fc6116548361156c565b6bffffffffffffffffffffffff169081150290604051600060405180830381858888f1935050505015801561168d573d6000803e3d6000fd5b503373ffffffffffffffffffffffffffffffffffffffff166108fc6116b18361156c565b6bffffffffffffffffffffffff16346116ca919061330d565b9081150290604051600060405180830381858888f193505050501580156116f5573d6000803e3d6000fd5b50826117038686868661225d565b6000600660008381526020019081526020016000209050611723826107ae565b8160000160086101000a8154816bffffffffffffffffffffffff02191690836bffffffffffffffffffffffff160217905550428160000160006101000a81548167ffffffffffffffff021916908367ffffffffffffffff16021790555060008160000160146101000a8154816bffffffffffffffffffffffff02191690836bffffffffffffffffffffffff1602179055507fb3751b0473baa8f7bbda9b4585ae58cc84102278141b981b54f8593a97751d95828260000160089054906101000a90046bffffffffffffffffffffffff16604051611801929190613341565b60405180910390a150505050505050565b606061181d82611cdf565b60006118276122bf565b905060008151116118475760405180602001604052806000815250611872565b80611851846122d6565b6040516020016118629291906134cd565b6040516020818303038152906040525b915050919050565b600080600080600660008681526020019081526020016000206040518060600160405290816000820160009054906101000a900467ffffffffffffffff1667ffffffffffffffff1667ffffffffffffffff1681526020016000820160089054906101000a90046bffffffffffffffffffffffff166bffffffffffffffffffffffff166bffffffffffffffffffffffff1681526020016000820160149054906101000a90046bffffffffffffffffffffffff166bffffffffffffffffffffffff166bffffffffffffffffffffffff16815250509050806000015181602001518260400151935093509350509193909250565b7f000000000000000000000000000000000000000000000000000000000000000081565b600062278d006127106119a291906134f1565b6006600084815260200190815260200160002060000160009054906101000a900467ffffffffffffffff1667ffffffffffffffff16426119e2919061330d565b7f00000000000000000000000000000000000000000000000000000000000000006006600086815260200190815260200160002060000160089054906101000a90046bffffffffffffffffffffffff16611a3c91906134f1565b611a4691906134f1565b611a509190613566565b9050919050565b6000600560008473ffffffffffffffffffffffffffffffffffffffff1673ffffffffffffffffffffffffffffffffffffffff16815260200190815260200160002060008373ffffffffffffffffffffffffffffffffffffffff1673ffffffffffffffffffffffffffffffffffffffff16815260200190815260200160002060009054906101000a900460ff16905092915050565b3373ffffffffffffffffffffffffffffffffffffffff16611b0b836111fa565b73ffffffffffffffffffffffffffffffffffffffff1614611b61576040517f08c379a0000000000000000000000000000000000000000000000000000000008152600401611b58906135e3565b60405180910390fd5b6000600660008481526020019081526020016000209050611b818361198f565b8160000160148282829054906101000a90046bffffffffffffffffffffffff16611bab9190613115565b92506101000a8154816bffffffffffffffffffffffff02191690836bffffffffffffffffffffffff160217905550818160000160086101000a8154816bffffffffffffffffffffffff02191690836bffffffffffffffffffffffff160217905550428160000160006101000a81548167ffffffffffffffff021916908367ffffffffffffffff1602179055507fb3751b0473baa8f7bbda9b4585ae58cc84102278141b981b54f8593a97751d958383604051611c68929190613341565b60405180910390a1505050565b60007f01ffc9a7000000000000000000000000000000000000000000000000000000007bffffffffffffffffffffffffffffffffffffffffffffffffffffffff1916827bffffffffffffffffffffffffffffffffffffffffffffffffffffffff1916149050919050565b611ce881612437565b611d27576040517f08c379a0000000000000000000000000000000000000000000000000000000008152600401611d1e906133df565b60405180910390fd5b50565b600033905090565b816004600083815260200190815260200160002060006101000a81548173ffffffffffffffffffffffffffffffffffffffff021916908373ffffffffffffffffffffffffffffffffffffffff160217905550808273ffffffffffffffffffffffffffffffffffffffff16611da5836111fa565b73ffffffffffffffffffffffffffffffffffffffff167f8c5be1e5ebec7d5bd14f71427d1e84f3dd0314c0f7b2291e5b200ac8c7c3b92560405160405180910390a45050565b611dfc611df6611d2a565b826124a3565b611e3b576040517f08c379a0000000000000000000000000000000000000000000000000000000008152600401611e3290613675565b60405180910390fd5b611e46838383611e4b565b505050565b8273ffffffffffffffffffffffffffffffffffffffff16611e6b826111fa565b73ffffffffffffffffffffffffffffffffffffffff1614611ec1576040517f08c379a0000000000000000000000000000000000000000000000000000000008152600401611eb890613707565b60405180910390fd5b600073ffffffffffffffffffffffffffffffffffffffff168273ffffffffffffffffffffffffffffffffffffffff161415611f31576040517f08c379a0000000000000000000000000000000000000000000000000000000008152600401611f2890613799565b60405180910390fd5b611f3c838383612538565b611f47600082611d32565b6001600360008573ffffffffffffffffffffffffffffffffffffffff1673ffffffffffffffffffffffffffffffffffffffff1681526020019081526020016000206000828254611f97919061330d565b925050819055506001600360008473ffffffffffffffffffffffffffffffffffffffff1673ffffffffffffffffffffffffffffffffffffffff1681526020019081526020016000206000828254611fee91906137b9565b92505081905550816002600083815260200190815260200160002060006101000a81548173ffffffffffffffffffffffffffffffffffffffff021916908373ffffffffffffffffffffffffffffffffffffffff160217905550808273ffffffffffffffffffffffffffffffffffffffff168473ffffffffffffffffffffffffffffffffffffffff167fddf252ad1be2c89b69c2b068fc378daa952ba7f163c4a11628f55a4df523b3ef60405160405180910390a46120ad83838361253d565b505050565b6120cd838383604051806020016040528060008152506115b7565b505050565b6120ec828260405180602001604052806000815250612542565b5050565b8173ffffffffffffffffffffffffffffffffffffffff168373ffffffffffffffffffffffffffffffffffffffff16141561215f576040517f08c379a00000000000000000000000000000000000000000000000000000000081526004016121569061385b565b60405180910390fd5b80600560008573ffffffffffffffffffffffffffffffffffffffff1673ffffffffffffffffffffffffffffffffffffffff16815260200190815260200160002060008473ffffffffffffffffffffffffffffffffffffffff1673ffffffffffffffffffffffffffffffffffffffff16815260200190815260200160002060006101000a81548160ff0219169083151502179055508173ffffffffffffffffffffffffffffffffffffffff168373ffffffffffffffffffffffffffffffffffffffff167f17307eab39ab6107e8899845ad3d59bd9653f200f220920489ca2b5937696c31836040516122509190612a32565b60405180910390a3505050565b61226e612268611d2a565b836124a3565b6122ad576040517f08c379a00000000000000000000000000000000000000000000000000000000081526004016122a490613675565b60405180910390fd5b6122b98484848461259d565b50505050565b606060405180602001604052806000815250905090565b6060600082141561231e576040518060400160405280600181526020017f30000000000000000000000000000000000000000000000000000000000000008152509050612432565b600082905060005b600082146123505780806123399061387b565b915050600a8261234991906138c4565b9150612326565b60008167ffffffffffffffff81111561236c5761236b612e3d565b5b6040519080825280601f01601f19166020018201604052801561239e5781602001600182028036833780820191505090505b5090505b6000851461242b576001826123b7919061330d565b9150600a856123c691906138f5565b60306123d291906137b9565b60f81b8183815181106123e8576123e7613926565b5b60200101907effffffffffffffffffffffffffffffffffffffffffffffffffffffffffffff1916908160001a905350600a8561242491906138c4565b94506123a2565b8093505050505b919050565b60008073ffffffffffffffffffffffffffffffffffffffff166002600084815260200190815260200160002060009054906101000a900473ffffffffffffffffffffffffffffffffffffffff1673ffffffffffffffffffffffffffffffffffffffff1614159050919050565b6000806124af836111fa565b90508073ffffffffffffffffffffffffffffffffffffffff168473ffffffffffffffffffffffffffffffffffffffff1614806124f157506124f08185611a57565b5b8061252f57508373ffffffffffffffffffffffffffffffffffffffff1661251784610768565b73ffffffffffffffffffffffffffffffffffffffff16145b91505092915050565b505050565b505050565b61254c83836125f9565b61255960008484846127d3565b612598576040517f08c379a000000000000000000000000000000000000000000000000000000000815260040161258f906139c7565b60405180910390fd5b505050565b6125a8848484611e4b565b6125b4848484846127d3565b6125f3576040517f08c379a00000000000000000000000000000000000000000000000000000000081526004016125ea906139c7565b60405180910390fd5b50505050565b600073ffffffffffffffffffffffffffffffffffffffff168273ffffffffffffffffffffffffffffffffffffffff161415612669576040517f08c379a000000000000000000000000000000000000000000000000000000000815260040161266090613a33565b60405180910390fd5b61267281612437565b156126b2576040517f08c379a00000000000000000000000000000000000000000000000000000000081526004016126a990613a9f565b60405180910390fd5b6126be60008383612538565b6001600360008473ffffffffffffffffffffffffffffffffffffffff1673ffffffffffffffffffffffffffffffffffffffff168152602001908152602001600020600082825461270e91906137b9565b92505081905550816002600083815260200190815260200160002060006101000a81548173ffffffffffffffffffffffffffffffffffffffff021916908373ffffffffffffffffffffffffffffffffffffffff160217905550808273ffffffffffffffffffffffffffffffffffffffff16600073ffffffffffffffffffffffffffffffffffffffff167fddf252ad1be2c89b69c2b068fc378daa952ba7f163c4a11628f55a4df523b3ef60405160405180910390a46127cf6000838361253d565b5050565b60006127f48473ffffffffffffffffffffffffffffffffffffffff1661295b565b1561294e578373ffffffffffffffffffffffffffffffffffffffff1663150b7a0261281d611d2a565b8786866040518563ffffffff1660e01b815260040161283f9493929190613b14565b6020604051808303816000875af192505050801561287b57506040513d601f19601f820116820180604052508101906128789190613b75565b60015b6128fe573d80600081146128ab576040519150601f19603f3d011682016040523d82523d6000602084013e6128b0565b606091505b506000815114156128f6576040517f08c379a00000000000000000000000000000000000000000000000000000000081526004016128ed906139c7565b60405180910390fd5b805181602001fd5b63150b7a0260e01b7bffffffffffffffffffffffffffffffffffffffffffffffffffffffff1916817bffffffffffffffffffffffffffffffffffffffffffffffffffffffff191614915050612953565b600190505b949350505050565b6000808273ffffffffffffffffffffffffffffffffffffffff163b119050919050565b6000604051905090565b600080fd5b600080fd5b60007fffffffff0000000000000000000000000000000000000000000000000000000082169050919050565b6129c781612992565b81146129d257600080fd5b50565b6000813590506129e4816129be565b92915050565b600060208284031215612a00576129ff612988565b5b6000612a0e848285016129d5565b91505092915050565b60008115159050919050565b612a2c81612a17565b82525050565b6000602082019050612a476000830184612a23565b92915050565b600081519050919050565b600082825260208201905092915050565b60005b83811015612a87578082015181840152602081019050612a6c565b83811115612a96576000848401525b50505050565b6000601f19601f8301169050919050565b6000612ab882612a4d565b612ac28185612a58565b9350612ad2818560208601612a69565b612adb81612a9c565b840191505092915050565b60006020820190508181036000830152612b008184612aad565b905092915050565b6000819050919050565b612b1b81612b08565b8114612b2657600080fd5b50565b600081359050612b3881612b12565b92915050565b600060208284031215612b5457612b53612988565b5b6000612b6284828501612b29565b91505092915050565b600073ffffffffffffffffffffffffffffffffffffffff82169050919050565b6000612b9682612b6b565b9050919050565b612ba681612b8b565b82525050565b6000602082019050612bc16000830184612b9d565b92915050565b60006bffffffffffffffffffffffff82169050919050565b612be881612bc7565b82525050565b6000602082019050612c036000830184612bdf565b92915050565b612c1281612b8b565b8114612c1d57600080fd5b50565b600081359050612c2f81612c09565b92915050565b60008060408385031215612c4c57612c4b612988565b5b6000612c5a85828601612c20565b9250506020612c6b85828601612b29565b9150509250929050565b600080600060608486031215612c8e57612c8d612988565b5b6000612c9c86828701612c20565b9350506020612cad86828701612c20565b9250506040612cbe86828701612b29565b9150509250925092565b612cd181612bc7565b8114612cdc57600080fd5b50565b600081359050612cee81612cc8565b92915050565b60008060408385031215612d0b57612d0a612988565b5b6000612d1985828601612b29565b9250506020612d2a85828601612cdf565b9150509250929050565b600060208284031215612d4a57612d49612988565b5b6000612d5884828501612c20565b91505092915050565b612d6a81612b08565b82525050565b6000602082019050612d856000830184612d61565b92915050565b6000612d9682612b6b565b9050919050565b612da681612d8b565b82525050565b6000602082019050612dc16000830184612d9d565b92915050565b612dd081612a17565b8114612ddb57600080fd5b50565b600081359050612ded81612dc7565b92915050565b60008060408385031215612e0a57612e09612988565b5b6000612e1885828601612c20565b9250506020612e2985828601612dde565b9150509250929050565b600080fd5b600080fd5b7f4e487b7100000000000000000000000000000000000000000000000000000000600052604160045260246000fd5b612e7582612a9c565b810181811067ffffffffffffffff82111715612e9457612e93612e3d565b5b80604052505050565b6000612ea761297e565b9050612eb38282612e6c565b919050565b600067ffffffffffffffff821115612ed357612ed2612e3d565b5b612edc82612a9c565b9050602081019050919050565b82818337600083830152505050565b6000612f0b612f0684612eb8565b612e9d565b905082815260208101848484011115612f2757612f26612e38565b5b612f32848285612ee9565b509392505050565b600082601f830112612f4f57612f4e612e33565b5b8135612f5f848260208601612ef8565b91505092915050565b60008060008060808587031215612f8257612f81612988565b5b6000612f9087828801612c20565b9450506020612fa187828801612c20565b9350506040612fb287828801612b29565b925050606085013567ffffffffffffffff811115612fd357612fd261298d565b5b612fdf87828801612f3a565b91505092959194509250565b600067ffffffffffffffff82169050919050565b61300881612feb565b82525050565b60006060820190506130236000830186612fff565b6130306020830185612bdf565b61303d6040830184612bdf565b949350505050565b6000806040838503121561305c5761305b612988565b5b600061306a85828601612c20565b925050602061307b85828601612c20565b9150509250929050565b7f4e487b7100000000000000000000000000000000000000000000000000000000600052602260045260246000fd5b600060028204905060018216806130cc57607f821691505b602082108114156130e0576130df613085565b5b50919050565b7f4e487b7100000000000000000000000000000000000000000000000000000000600052601160045260246000fd5b600061312082612bc7565b915061312b83612bc7565b9250826bffffffffffffffffffffffff0382111561314c5761314b6130e6565b5b828201905092915050565b7f4552433732313a20617070726f76616c20746f2063757272656e74206f776e6560008201527f7200000000000000000000000000000000000000000000000000000000000000602082015250565b60006131b3602183612a58565b91506131be82613157565b604082019050919050565b600060208201905081810360008301526131e2816131a6565b9050919050565b7f4552433732313a20617070726f76652063616c6c6572206973206e6f7420746f60008201527f6b656e206f776e6572206e6f7220617070726f76656420666f7220616c6c0000602082015250565b6000613245603e83612a58565b9150613250826131e9565b604082019050919050565b6000602082019050818103600083015261327481613238565b9050919050565b7f5472616e736665722076696f6c6174657320486162657267657220546f6b656e60008201527f207374616e646172640000000000000000000000000000000000000000000000602082015250565b60006132d7602983612a58565b91506132e28261327b565b604082019050919050565b60006020820190508181036000830152613306816132ca565b9050919050565b600061331882612b08565b915061332383612b08565b925082821015613336576133356130e6565b5b828203905092915050565b60006040820190506133566000830185612d61565b6133636020830184612bdf565b9392505050565b600060408201905061337f6000830185612d61565b61338c6020830184612b9d565b9392505050565b7f4552433732313a20696e76616c696420746f6b656e2049440000000000000000600082015250565b60006133c9601883612a58565b91506133d482613393565b602082019050919050565b600060208201905081810360008301526133f8816133bc565b9050919050565b7f4552433732313a2061646472657373207a65726f206973206e6f74206120766160008201527f6c6964206f776e65720000000000000000000000000000000000000000000000602082015250565b600061345b602983612a58565b9150613466826133ff565b604082019050919050565b6000602082019050818103600083015261348a8161344e565b9050919050565b600081905092915050565b60006134a782612a4d565b6134b18185613491565b93506134c1818560208601612a69565b80840191505092915050565b60006134d9828561349c565b91506134e5828461349c565b91508190509392505050565b60006134fc82612bc7565b915061350783612bc7565b9250816bffffffffffffffffffffffff048311821515161561352c5761352b6130e6565b5b828202905092915050565b7f4e487b7100000000000000000000000000000000000000000000000000000000600052601260045260246000fd5b600061357182612bc7565b915061357c83612bc7565b92508261358c5761358b613537565b5b828204905092915050565b7f4f6e6c7920746f6b656e206f776e65722063616e207365742070726963650000600082015250565b60006135cd601e83612a58565b91506135d882613597565b602082019050919050565b600060208201905081810360008301526135fc816135c0565b9050919050565b7f4552433732313a2063616c6c6572206973206e6f7420746f6b656e206f776e6560008201527f72206e6f7220617070726f766564000000000000000000000000000000000000602082015250565b600061365f602e83612a58565b915061366a82613603565b604082019050919050565b6000602082019050818103600083015261368e81613652565b9050919050565b7f4552433732313a207472616e736665722066726f6d20696e636f72726563742060008201527f6f776e6572000000000000000000000000000000000000000000000000000000602082015250565b60006136f1602583612a58565b91506136fc82613695565b604082019050919050565b60006020820190508181036000830152613720816136e4565b9050919050565b7f4552433732313a207472616e7366657220746f20746865207a65726f2061646460008201527f7265737300000000000000000000000000000000000000000000000000000000602082015250565b6000613783602483612a58565b915061378e82613727565b604082019050919050565b600060208201905081810360008301526137b281613776565b9050919050565b60006137c482612b08565b91506137cf83612b08565b9250827fffffffffffffffffffffffffffffffffffffffffffffffffffffffffffffffff03821115613804576138036130e6565b5b828201905092915050565b7f4552433732313a20617070726f766520746f2063616c6c657200000000000000600082015250565b6000613845601983612a58565b91506138508261380f565b602082019050919050565b6000602082019050818103600083015261387481613838565b9050919050565b600061388682612b08565b91507fffffffffffffffffffffffffffffffffffffffffffffffffffffffffffffffff8214156138b9576138b86130e6565b5b600182019050919050565b60006138cf82612b08565b91506138da83612b08565b9250826138ea576138e9613537565b5b828204905092915050565b600061390082612b08565b915061390b83612b08565b92508261391b5761391a613537565b5b828206905092915050565b7f4e487b7100000000000000000000000000000000000000000000000000000000600052603260045260246000fd5b7f4552433732313a207472616e7366657220746f206e6f6e20455243373231526560008201527f63656976657220696d706c656d656e7465720000000000000000000000000000602082015250565b60006139b1603283612a58565b91506139bc82613955565b604082019050919050565b600060208201905081810360008301526139e0816139a4565b9050919050565b7f4552433732313a206d696e7420746f20746865207a65726f2061646472657373600082015250565b6000613a1d602083612a58565b9150613a28826139e7565b602082019050919050565b60006020820190508181036000830152613a4c81613a10565b9050919050565b7f4552433732313a20746f6b656e20616c7265616479206d696e74656400000000600082015250565b6000613a89601c83612a58565b9150613a9482613a53565b602082019050919050565b60006020820190508181036000830152613ab881613a7c565b9050919050565b600081519050919050565b600082825260208201905092915050565b6000613ae682613abf565b613af08185613aca565b9350613b00818560208601612a69565b613b0981612a9c565b840191505092915050565b6000608082019050613b296000830187612b9d565b613b366020830186612b9d565b613b436040830185612d61565b8181036060830152613b558184613adb565b905095945050505050565b600081519050613b6f816129be565b92915050565b600060208284031215613b8b57613b8a612988565b5b6000613b9984828501613b60565b9150509291505056fea2646970667358221220d6aecd4c196b861db1e8877141d9b36ea89e0c98219ece1d188948636462087664736f6c634300080b0033",
  "immutableReferences": {
    "1479": [
      {
        "length": 32,
        "start": 6509
      },
      {
        "length": 32,
        "start": 6628
      }
    ],
    "1481": [
      {
        "length": 32,
        "start": 2413
      },
      {
        "length": 32,
        "start": 3299
      },
      {
        "length": 32,
        "start": 3429
      },
      {
        "length": 32,
        "start": 4093
      },
      {
        "length": 32,
        "start": 5119
      },
      {
        "length": 32,
        "start": 5651
      }
    ]
  },
  "source": "// SPDX-License-Identifier: MIT\npragma solidity >=0.4.22 <0.9.0;\n\nimport \"./ERC721.sol\";\nimport \"./IERC721Harberger.sol\";\n\ncontract ERC721Harberger is ERC721, IERC721Harberger{\n\n  uint96 public constant month = 30 days;\n  uint96 public constant mintingPrice = 0 ether;\n  uint96 public immutable harbergerRate; // In perTenThousand per month.\n  address payable public immutable royaltyReceiver; // Can be set differently with DAO mechanisms if a setter function is implemented\n\n  mapping (uint256 => HarbergerTax) private tokenHarbergerInfo;\n\n  constructor(string memory name, string memory symbol, uint96 _harbergerRate) ERC721(name, symbol) {\n    harbergerRate = _harbergerRate;\n    royaltyReceiver = payable(msg.sender);\n  }\n\n  modifier isHarbergerTax(uint256 tokenId){\n    require(msg.value>=getHarbergerTax(tokenId), \"Transfer violates Haberger Token standard\");\n    royaltyReceiver.transfer(getHarbergerTax(tokenId));\n    payable(msg.sender).transfer(msg.value-getHarbergerTax(tokenId)); // could be deleted and replaced as tip to royaltyReceiver\n    _;\n  }\n\n  modifier harbergerReset(uint256 tokenId){\n    _;\n    HarbergerTax storage harb = tokenHarbergerInfo[tokenId];\n    harb.currentPrice = getHarbergerPrice(tokenId); // guarantees that claim function will not be easier to invoke after transfer\n    harb.lastChange = uint64(block.timestamp); // updates last purchase\n    harb.accumulatedTax = 0; // resets tax\n    emit NewHarbergerPrice(tokenId,harb.currentPrice);\n\n  }\n\n  function claim(uint256 tokenId) public payable harbergerReset(tokenId){\n    require(msg.sender != ownerOf(tokenId));\n    require(msg.value >= getHarbergerPrice(tokenId));\n    bool sent = payable(ownerOf(tokenId)).send(tokenHarbergerInfo[tokenId].currentPrice);\n    if (!sent) {\n      royaltyReceiver.transfer(getHarbergerPrice(tokenId));\n    } else {\n    royaltyReceiver.transfer(getHarbergerTax(tokenId));\n    }\n\n    payable(msg.sender).transfer(msg.value-getHarbergerPrice(tokenId));\n    _transfer(ownerOf(tokenId), msg.sender, tokenId);\n\n    emit Claimed(tokenId, msg.sender);\n\n  }\n\n  function claimAndSetPrice(uint256 tokenId, uint96 price) external payable {\n\n    claim(tokenId);\n    tokenHarbergerInfo[tokenId].currentPrice = price;\n    emit NewHarbergerPrice(tokenId,price);\n    \n  }\n\n  function transferFrom(address from, address to, uint256 tokenId) public payable override \n  isHarbergerTax(tokenId) harbergerReset(tokenId) {\n    super.transferFrom(from,to,tokenId);\n  }\n  function safeTransferFrom(address from, address to, uint256 tokenId) public payable override \n  isHarbergerTax(tokenId) harbergerReset(tokenId) {\n    super.safeTransferFrom(from,to,tokenId);\n  }\n  function safeTransferFrom(address from, address to, uint256 tokenId, bytes memory data) public payable override isHarbergerTax(tokenId) harbergerReset(tokenId) {\n    super.safeTransferFrom(from,to,tokenId, data);\n  }\n\n  function setTokenPrice(uint256 tokenId, uint96 price) public {\n    require (ownerOf(tokenId) == msg.sender, \"Only token owner can set price\");\n    HarbergerTax storage stor = tokenHarbergerInfo[tokenId];\n    stor.accumulatedTax += remainingTax(tokenId);\n    stor.currentPrice = price;\n    stor.lastChange = uint64(block.timestamp); \n    emit NewHarbergerPrice(tokenId,price);\n \n  }\n\n  function getHarbergerInfo(uint256 tokenId) public view returns(uint64,uint96,uint96) {\n    HarbergerTax memory info = tokenHarbergerInfo[tokenId];\n    return (info.lastChange,info.currentPrice,info.accumulatedTax);\n  }\n  function getHarbergerTax(uint256 tokenId) public view returns (uint96){\n\n    return tokenHarbergerInfo[tokenId].accumulatedTax+remainingTax(tokenId);\n  } \n\n  function getHarbergerPrice(uint256 tokenId) public view returns (uint96){\n    return tokenHarbergerInfo[tokenId].currentPrice + getHarbergerTax(tokenId);\n  }\n\n  function remainingTax(uint256 tokenId) public view returns (uint96 openTax) {\n    openTax = tokenHarbergerInfo[tokenId].currentPrice*harbergerRate\n    *uint96((block.timestamp-tokenHarbergerInfo[tokenId].lastChange))/(10000*month);\n  }\n  /**\n  Very basic mint function\n  @dev Mock mint to be replaced with real mint function */\n  function mint(uint256 tokenId) external payable{\n    require(msg.value >= mintingPrice);\n    payable(msg.sender).transfer(msg.value-mintingPrice);\n    _safeMint(msg.sender, tokenId);\n    HarbergerTax storage harb = tokenHarbergerInfo[tokenId];\n    harb.currentPrice = mintingPrice; // guarantees that claim function will not be easier to invoke after transfer\n    harb.lastChange = uint64(block.timestamp); // updates last purchase\n    harb.accumulatedTax = 0; // resets tax\n    \n  }\n\n}\n\n\n",
  "sourcePath": "/Users/admin/Desktop/GeneralCoding/HabergerTax/contracts/ERC721Harberger.sol",
  "compiler": {
    "name": "solc",
    "version": "0.8.11+commit.d7f03943.Emscripten.clang"
  },
  "schemaVersion": "3.4.5",
  "updatedAt": "2022-08-21T13:00:17.625Z",
  "devdoc": {
    "kind": "dev",
    "methods": {
      "approve(address,uint256)": {
        "details": "See {IERC721-approve}."
      },
      "balanceOf(address)": {
        "details": "See {IERC721-balanceOf}."
      },
      "claim(uint256)": {
        "details": "the famous Haberger transfer, allows anyone to claim the NFT at its listed price."
      },
      "claimAndSetPrice(uint256,uint96)": {
        "details": "Haberger transfer allowing to choose reset price"
      },
      "getApproved(uint256)": {
        "details": "See {IERC721-getApproved}."
      },
      "getHarbergerPrice(uint256)": {
        "details": "returns the total price needed to activate a transfer"
      },
      "getHarbergerTax(uint256)": {
        "details": "allows to easily fetch information about the previous tax accumulated"
      },
      "isApprovedForAll(address,address)": {
        "details": "See {IERC721-isApprovedForAll}."
      },
      "mint(uint256)": {
        "details": "Mock mint to be replaced with real mint function "
      },
      "name()": {
        "details": "See {IERC721Metadata-name}."
      },
      "ownerOf(uint256)": {
        "details": "See {IERC721-ownerOf}."
      },
      "remainingTax(uint256)": {
        "details": "returns the tax caused by ongoing pricing period."
      },
      "safeTransferFrom(address,address,uint256)": {
        "details": "See {IERC721-safeTransferFrom}."
      },
      "safeTransferFrom(address,address,uint256,bytes)": {
        "details": "See {IERC721-safeTransferFrom}."
      },
      "setApprovalForAll(address,bool)": {
        "details": "See {IERC721-setApprovalForAll}."
      },
      "setTokenPrice(uint256,uint96)": {
        "details": "sets the price of token at which anyone can buy the NFT"
      },
      "supportsInterface(bytes4)": {
        "details": "See {IERC165-supportsInterface}."
      },
      "symbol()": {
        "details": "See {IERC721Metadata-symbol}."
      },
      "tokenURI(uint256)": {
        "details": "See {IERC721Metadata-tokenURI}."
      },
      "transferFrom(address,address,uint256)": {
        "details": "See {IERC721-transferFrom}."
      }
    },
    "version": 1
  },
  "userdoc": {
    "kind": "user",
    "methods": {
      "mint(uint256)": {
        "notice": "Very basic mint function"
      }
    },
    "version": 1
  }
}